S015000046696E616C5F50726F6A6563742E73726563EF
S11300000C9434000C9451000C9451000C94510045
S11300100C9451000C9451000C9451000C94510018
S11300200C9451000C9451000C9451000C94510008
S11300300C9451000C9451000C9451000C945100F8
S11300400C9451000C9451000C9451000C945100E8
S11300500C9451000C9451000C9451000C945100D8
S11300600C9451000C94510011241FBECFEFD8E022
S1130070DEBFCDBF12E0A0E0B1E0E6E4F8E002C0EC
S113008005900D92A631B107D9F722E0A6E1B2E0BE
S113009001C01D92AF31B207E1F70E943B030C94FB
S11300A021040C9400001092C5008CE08093C400DD
S11300B0E0ECF0E080818260808388E18093C1007D
S11300C086E08093C2000895E0ECF0E0808188230C
S11300D0ECF78091C6000895E0ECF0E0908195FF84
S11300E0FDCF8093C6000895CF93DF93EC01219652
S11300F0FC018081882359F00E946C0083EF91E019
S11301000197F1F700C0000089918111F5CFDF91CB
S1130110CF9108958DE00E946C008AE00E946C00EB
S113012008951816190644F420E030E000002F5F0B
S11301303F4F82179307D1F708951F93CF93DF930F
S1130140C4E6D0E011E018B9CE010E94910018B8BD
S113015084EF91E00E9491002596C83CD10599F75F
S1130160DF91CF911F9108951F93CF93DF93C4E63E
S1130170D0E011E018B984E190E00E94910018B831
S113018084ED93E00E9491002197A1F7DF91CF9134
S11301901F9108950E949D002FE58AEE90E0215062
S11301A080409040E1F700C000000E949D008FE471
S11301B093EC0197F1F700C000000E949D000895A0
S11301C01F93CF93DF938BE792E90197F1F700C078
S11301D00000C4E6D0E011E018B984E190E00E9488
S11301E0910018B884ED93E00E9491002197A1F743
S11301F087EA91E60197F1F700C00000C8ECD0E06F
S113020011E018B983E490E00E94910018B888E5E1
S113021092E00E9491002197A1F7DF91CF911F9165
S113022008951F93CF93DF938BE792E90197F1F73A
S113023000C00000C4E6D0E011E018B981E090E00D
S11302400E94910018B888EC90E00E9491002197D8
S1130250A1F787EA91E60197F1F700C00000C8EC26
S1130260D0E011E018B981E690E00E94910018B83E
S11302708CE291E00E9491002197A1F7DF91CF9148
S11302801F9108951F93CF93DF938BE792E9019712
S1130290F1F700C00000CEE1D0E011E018B981E030
S11302A090E00E94910018B8CE010E94910021961E
S11302B0C238D10599F787EA91E60197F1F700C0B2
S11302C00000C8ECD0E011E018B981E090E00E9491
S11302D0910018B8CE010E9491002197A9F7DF91EF
S11302E0CF911F9108951F93CF93DF938BE792E9EA
S11302F00197F1F700C00000C8E2D0E011E018B99E
S113030081E090E00E94910018B8CE010E94910013
S11303102196CC38D10599F787EA91E60197F1F750
S113032000C00000C4E6D0E011E018B981E090E01C
S11303300E94910018B8CE010E9491002196CC32FF
S113034091E0D90791F7DF91CF911F9108951F9301
S1130350CF93DF938BE792E90197F1F700C0000098
S1130360C4E6D0E011E018B981E090E00E94910069
S113037018B88CE291E00E9491002197A1F787EAD6
S113038091E60197F1F700C00000C8ECD0E011E05D
S113039018B981E090E00E94910018B888EC90E0D0
S11303A00E9491002197A1F7DF91CF911F910895A9
S11303B01F93CF93DF938BE792E90197F1F700C086
S11303C00000C4E6D0E011E018B981E090E00E949A
S11303D0910018B888E592E00E9491002197A1F756
S11303E087EA91E60197F1F700C00000C8ECD0E07D
S11303F011E018B981E090E00E94910018B88EE1F4
S113040090E00E9491002197A1F7DF91CF911F9175
S11304100895569A5E9A2FE38DE093E02150804030
S11304209040E1F700C000005E9887E893E10197EF
S1130430F1F700C000005E9A089556984E99FECFD9
S11304404E9BFECF4E99FECF089588E090E04E9BE0
S1130450FECF2AE02A95F1F74E9B07C0209119029E
S1130460220F21602093190205C020911902220F46
S1130470209319024E99FECF019749F780911902F2
S113048008950F931F93CF93DF9300D000D01F9252
S1130490CDB7DEB78C010E9409020E941D020E94A2
S11304A0250280931D020E94250280931A020E9455
S11304B0250280931C020E94250280931E020E9442
S11304C0250280931B02A0911D02B0E0E0911C0262
S11304D0F0E090911A029D01290F311D2E0F3F1F4C
S11304E090911E02290F311D482F50E02417350723
S11304F039F084E291E00E9474000E948A006AC08C
S11305000130110539F54AE0BE016F5F7F4FCD011F
S11305100E94EC0388E191E00E947400CE010196F0
S11305200E9474008CE391E00E94740080911A028E
S11305304AE0BE016F5F7F4F90E00E94EC03CE0162
S113054001960E94740086E091E00E9474000E946B
S11305508A0040C002301105E9F54AE0BE016F5F30
S11305607F4FCF010E94EC0389E091E00E94740068
S1130570CE0101960E9474008CE391E00E94740005
S113058080911E024AE0BE016F5F7F4F90E00E949F
S1130590EC03CE0101960E94740083E091E00E9476
S11305A074000E948A0089E091E00E9474008091A6
S11305B01B024AE0BE016F5F7F4F90E00E94EC0394
S11305C0CE0101960E94740080E091E00E947400C4
S11305D00E948A002FE986E891E0215080409040F3
S11305E0E1F700C000000F900F900F900F900F9054
S11305F0DF91CF911F910F9108950E94CA000E942C
S1130600A7010E94CA000E94D8010E94B4000E945F
S1130610CA000E94A7010E94E0000E9442010E94B9
S113062073010E94B4000E94CA000E94A7010E94A4
S1130630E0000E9442010E9473010E94CA000E94CD
S1130640A7010E94CA000E94D80108950E94B40024
S11306500E94CA000E94E0000E9411010895389A85
S1130660409A87EA91E60197F1F700C000004098AC
S11306700E9426030895209A219A229A0E945300E8
S11306808AE291E00E9474000E948A000E942F0373
S113069087EA91E60197F1F700C00000C1E00E94EB
S11306A0640090E0E7EAF1E63197F1F700C000005A
S11306B081339105B1F480911802811108C08EE351
S11306C091E00E947400289AC093180207C08EE437
S11306D091E00E9474002898109218020E948A00E7
S11306E074C082339105B1F480911702811108C05E
S11306F08FE591E00E947400299AC093170207C005
S11307008EE691E00E9474002998109217020E94CC
S11307108A005BC083339105B1F480911602811184
S113072008C08EE791E00E9474002A9AC0931602D2
S113073007C08CE891E00E9474002A981092160277
S11307400E948A0042C084339105A1F48BE991E0B0
S11307500E9474000E948A0081E090E00E9441029D
S1130760FFE926E881E0F15020408040E1F700C035
S113077000002BC085339105A1F482EB91E00E9427
S113078074000E948A0082E090E00E9441029FE986
S1130790E6E8F1E09150E040F040E1F700C00000ED
S11307A014C0C69791F48CEC91E00E9474000E94EE
S11307B08A0081EE91E00E9474000E94FD020E9472
S11307C08A008AEE91E00E94740087EA91E601971C
S11307D0F1F700C0000063CFBB274A3031F49923FE
S11307E022F4BDE2909581959F4F0C94F803BB27AA
S11307F0FB015527AA27880F991FAA1FA41710F0D9
S1130800A41B83955051B9F7A05DAA3308F0A95DE4
S1130810A193009779F7B111B1931192CB010C9484
S11308201104DC01FC01672F71917723E1F7329702
S113083004C07C916D9370836291AE17BF07C8F3B7
S10908400895F894FFCFB7
S113084620460020430020250054656D70657261C2
S113085674757265203D200048756D696469747904
S1130866203D20004552524F520048656C6C6F2C57
S11308762057656C636F6D65203A29002E00477218
S113088665656E204C4544202D3E204F4E00477230
S113089665656E204C4544202D3E204F4646004259
S11308A66C7565204C4544202D3E204F4E00426C0D
S11308B67565204C4544202D3E204F464600526522
S11308C664204C4544202D3E204F4E005265642042
S11308D64C4544202D3E204F4646007C2D2D2D2D83
S11308E6205B48756D69646974795D202D2D2D2D05
S11308F67C007C2D2D2D2D205B54656D70657261F9
S1130906747572655D202D2D2D2D7C007C2D2D2D6D
S11309162D205B42757A7A65725D202D2D2D2D7CF6
S113092600456E6A6F7921212100556E666F7274D7
S1130936756E6174656C792C2069742773206F76E3
S11309466572206E6F772120706C61792061676112
S1090956696E212100007E
S9030000FC
